:100000000C9462000C94C90F0C94A20F0C948A00FB
:100010000C948A000C948A000C948A000C948A0038
:100020000C948A000C948A000C948A000C948A0028
:100030000C948A000C948A000C948A000C948A0018
:100040000C94580F0C948A000C9416100C94F00F1A
:100050000C948A000C948A000C948A000C948A00F8
:100060000C948A000C948A000000000024002700F1
:100070002A0000000000250028002B0000000000DE
:1000800023002600290004040404040404040202DA
:100090000202020203030303030301020408102007
:1000A0004080010204081020010204081020000012
:1000B0000008000201000003040700000000000027
:1000C0000000481011241FBECFEFD8E0DEBFCDBF27
:1000D00014E0A0E0B1E0ECEEF5E302C005900D9273
:1000E000A230B107D9F728E0A2E0B4E001C01D9228
:1000F000AF30B207E1F710E0C2E6D0E004C02197CC
:10010000FE010E947F16C136D107C9F70E949811DF
:100110000C94F41A0C9400008F929F92AF92BF92AD
:10012000CF92DF92EF92FF92CF93DF93EC0128EB17
:100130003EE145E05DE36C817D818E819F810E947F
:1001400006176B017C012DE33AE047E95EE36A8D17
:100150007B8D8C8D9D8D0E94651828EB3EE145E8D6
:100160005DE30E9406174B015C01AC019B01C701D6
:10017000B6010E9495160E9478176F3F710519F01D
:1001800014F06FEF70E061308FEF780714F461E0E6
:100190007FEF7093130460931204A5019401C701CB
:1001A000B6010E9494160E9478176F3F710519F0EE
:1001B00014F06FEF70E061308FEF780714F461E0B6
:1001C0007FEF7093110460931004DF91CF91FF9043
:1001D000EF90DF90CF90BF90AF909F908F90089559
:1001E000833081F028F4813099F08230A9F00895AD
:1001F0008730A9F08830C9F08430B1F48091800054
:100200008F7D03C0809180008F7780938000089558
:1002100084B58F7784BD089584B58F7DFBCF8091A1
:10022000B0008F778093B00008958091B0008F7DEB
:10023000F9CFCF93DF93282F30E0F901E255FF4F3C
:100240008491F901E656FF4FD491F901EA57FF4F27
:10025000C491CC23A1F081110E94F000EC2FF0E0BA
:10026000EE0FFF1FE458FF4FA591B491EC91ED23E1
:1002700081E090E009F480E0DF91CF91089580E083
:1002800090E0FACF1F93CF93DF93282F30E0F9014E
:10029000E255FF4F8491F901E656FF4FD491F901E1
:1002A000EA57FF4FC491CC23A9F0162F81110E9469
:1002B000F000EC2FF0E0EE0FFF1FEE58FF4FA5917E
:1002C000B4918FB7F894EC91111108C0D095DE234A
:1002D000DC938FBFDF91CF911F910895DE2BF8CF74
:1002E000CF93DF9390E0FC01E656FF4F24918A57AD
:1002F0009F4FFC0184918823D1F090E0880F991FD3
:10030000FC01E859FF4FA591B491FC01EE58FF4F55
:10031000C591D49161110EC09FB7F8948C91E22FD2
:10032000E0958E238C932881E223E8839FBFDF91A1
:10033000CF9108958FB7F894EC91E22BEC938FBF97
:10034000F6CF1F93CF93DF93182FEB0161E00E944C
:100350007001209739F460E0812FDF91CF911F91D8
:100360000C944201CF3FD10511F461E0F5CFE12FAC
:10037000F0E0E255FF4FE491E33031F140F4E13039
:10038000B1F0E230E1F0C038D1057CF7E4CFE730DE
:1003900029F1E83059F1E430B1F7809180008062B2
:1003A00080938000D0938B00C0938A0004C084B5F2
:1003B000806884BDC7BDDF91CF911F91089584B53A
:1003C000806284BDC8BDF7CF809180008068809333
:1003D0008000D0938900C0938800EDCF8091B00059
:1003E00080688093B000C093B300E5CF8091B000E7
:1003F00080628093B000C093B400DDCF60E089E0FC
:100400000E94420160E08AE00E94420170E060E0E8
:100410008BE00E94A10160E087E00E94420160E061
:1004200088E00E94420170E060E086E00C94A10147
:100430002FB7F89460913D0470913E0480913F0481
:10044000909140042FBF089585E00E9419012FEF7D
:100450003FEF1816190614F421E030E080913604BD
:1004600090913704820F931F909337048093360442
:10047000089584E00E94190121E030E01816190661
:1004800014F42FEF3FEF8091340490913504820FE4
:10049000931F909335048093340408950895AF9288
:1004A000BF92CF92DF92EF92FF920F931F93CF9361
:1004B000DF936C017B018B01040F151FEB015E01C3
:1004C000AE18BF08C017D10759F06991D601ED9158
:1004D000FC910190F081E02DC6010995892B79F7F7
:1004E000C501DF91CF911F910F91FF90EF90DF90A9
:1004F000CF90BF90AF900895FC01538D448D252F70
:1005000030E0842F90E0821B930B541710F0CF96AD
:10051000089501970895FC01918D828D981761F0DF
:10052000A28DAE0FBF2FB11D5D968C91928D9F5FF6
:100530009F73928F90E008958FEF9FEF0895FC01D5
:10054000918D828D981731F0828DE80FF11D858D88
:1005500090E008958FEF9FEF0895FC01918D228D1B
:10056000892F90E0805C9F4F821B91098F739927A0
:10057000089581E494E00E94AD0221E0892B09F402
:1005800020E0822F089580E090E0892B29F00E94DE
:10059000B90281110C9400000895FC01A48DA80FEC
:1005A000B92FB11DA35ABF4F2C91848D90E00196B5
:1005B0008F739927848FA689B7892C93A089B189D5
:1005C0008C91837080648C93938D848D981306C076
:1005D0000288F389E02D80818F7D80830895EF92DA
:1005E000FF920F931F93CF93DF93EC0181E0888FED
:1005F0009B8D8C8D98131AC0E889F989808185FFBD
:1006000015C09FB7F894EE89FF896083E889F9895E
:1006100080818370806480839FBF81E090E0DF9160
:10062000CF911F910F91FF90EF900895F62E0B8DB3
:1006300010E00F5F1F4F0F731127E02E8C8D8E116E
:100640000CC00FB607FCFACFE889F989808185FFD5
:10065000F5CFCE010E94CD02F1CFEB8DEC0FFD2F37
:10066000F11DE35AFF4FF0829FB7F8940B8FEA8990
:10067000FB8980818062CFCFCF93DF93EC01888D9F
:100680008823B9F0AA89BB89E889F9898C9185FD0D
:1006900003C0808186FD0DC00FB607FCF7CF8C919B
:1006A00085FFF2CF808185FFEDCFCE010E94CD0284
:1006B000E9CFDF91CF9108958A549D4FFC0180814D
:1006C000089586EC91E0089587EE91E00895FC018D
:1006D00086A197A10895AF92BF92CF92DF92EF9239
:1006E000FF920F931F93CF93DF9300D000D01F9200
:1006F000CDB7DEB7643671054CF0FC01EA54FD4F0E
:100700002081F12CE12C222309F476C0DA017B014F
:100710008C01BC01695C7E4FED91FC910190F081F0
:10072000E02DCA010995680120EDC21A2EEFD20A08
:100730002FEFD6012C93F801EF5CFE4F2EEF2083B4
:1007400031968083319690833196292F280F2095FA
:1007500020833196E0821696FC9245E050E030E02E
:1007600020E0DC011696A417B50734F06191260F3E
:10077000311D4F5F5F4FF7CF7C01B8E0EB0EF11CEE
:10078000800F911FFC01E95CFE4F20952083E9E179
:10079000EE16E1E0FE06B4F45601C5018C199D0980
:1007A0008E159F054CF5D80112968D919C91F501FF
:1007B00061915F01DC01ED91FC910190F081E02DF0
:1007C0000995EBCF82E491E09A83898383E08B8360
:1007D0008BEF91E09D838C83D801ED91FC9101908A
:1007E000F081E02DAE014F5F5F4F67E070E0C80120
:1007F0000995EE24EA94FE2CC7010F900F900F90FC
:100800000F900F90DF91CF911F910F91FF90EF907C
:10081000DF90CF90BF90AF9008950F931F93CF9329
:10082000DF93CDB7DEB72A970FB6F894DEBF0FBEC1
:10083000CDBF8C0186E391E09A8389831B821C8261
:100840001D821E821F82188619861A86D801ED9194
:10085000FC910190F081E02DAE014F5F5F4F6AE0A7
:1008600070E0C80109950E941802F801608771873D
:10087000828793872A960FB6F894DEBF0FBECDBF4E
:10088000DF91CF911F910F910895CF92DF92EF9258
:10089000FF92DC011D921D921D921C921397FB0189
:1008A00030E020E0419150E0022E02C0440F551F7D
:1008B0000A94E2F7052E000C660B770BCD90DD90C5
:1008C000ED90FC9013974C295D296E297F294D935B
:1008D0005D936D937C931397285F3F4F20323105D2
:1008E00009F7FF90EF90DF90CF900895FC014083CF
:1008F000518312821382089584E392E0089585E57E
:1009000092E008958BE692E008958CE892E00895D5
:1009100080EA92E0089581EC92E00895FB01408125
:10092000518162817381FC014283538364837583A7
:1009300084E090E00895EF92FF920F931F93CF937E
:10094000DF937C01EB0188819981F7019583848392
:100950008A819B81918780876C5F7F4FC7010A9650
:100960000E948E048C010C5F1F4FBE01600F711F2F
:10097000C70140960E948E04800F911FC80FD91F97
:100980002881F701208F0196DF91CF911F910F9160
:10099000FF90EF900895FB01DC0112964C911297A5
:1009A00013963C91139714962C91149715968C914D
:1009B000408331832283838384E090E00895EF9223
:1009C000FF920F931F93CF93DF938C01EB01FC01F8
:1009D0009481858198838983908581859A838B838F
:1009E0006C5F7F4FC8010A960E94CB0404967C017D
:1009F000BE01680F791FC80140960E94CB048E0D7E
:100A00009F1DC80FD91FF801208D28830196DF9103
:100A1000CF911F910F91FF90EF90089582ED92E09A
:100A2000089583EF92E00895FB0120813181FC015C
:100A30003383228382E090E00895FC012281838148
:100A4000FB012083818382E090E0089582E093E0BF
:100A5000089583E293E00895FB012081FC01228345
:100A600081E090E00895FC018281FB01808381E0B8
:100A700090E0089581E393E008958AE091E008957D
:100A800082E593E0089583E793E008954F925F92A3
:100A90006F927F928F929F92AF92BF92EF92FF924E
:100AA0000F931F93CF93DF9300D000D0CDB7DEB765
:100AB0007C018B01FB018191BF01F7018283CE0193
:100AC00001960E94450489819A81AB81BC814C01C9
:100AD0005D01F5E08F0E911CA11CB11CA8014C5FBB
:100AE0005F4FFA0125E030E02901712C612C481498
:100AF00059046A047B0428F4618161932F5F3F4F9E
:100B0000F3CFF801E80FF91F1482F70154834383F0
:100B100005960F900F900F900F90DF91CF911F913E
:100B20000F91FF90EF90BF90AF909F908F907F902C
:100B30006F905F904F90089586E893E0089587EA5C
:100B400093E008954F925F926F927F928F929F925F
:100B5000AF92BF92CF92DF92EF92FF920F931F93CB
:100B6000CF93DF93CDB7DEB72C970FB6F894DEBFE7
:100B70000FBECDBF7C018B01DB018C9190E0F701B2
:100B80009383828311962C91922B938382836E5F41
:100B90007F4FCE0101960E94450489809A80AB80E8
:100BA000BC8024013501F6E04F0E511C611C711C04
:100BB00098012B5F3F4FF90186E090E0AC0170E0B7
:100BC00060E0441555056605770520F441814193A1
:100BD0000196F4CFB4016A5F7F4FF801E80DF91D6B
:100BE0001582D70115963C932E931497600F711FB1
:100BF000CE0105960E944504BAE08B0E911C4D80F3
:100C00005E806F807884C401092C000CAA0BBB0B9A
:100C10005C016D01A40CB51CC61CD71CF801E80DC5
:100C2000F91DAF01401B510B70E060E04A155B05F8
:100C30006C057D0538F42191AF0142505109DA016C
:100C40002C93EFCF480C591CB801640D751DFB01A6
:100C500031971082C4010197800F911FF70197838C
:100C60008683CE0109960E94450492012C5F3F4F76
:100C700089849A84AB84BC84A901032E000C660B82
:100C8000770B480D591D6A1D7B1DF801E20FF31FFC
:100C9000CF01801B910BB0E0A0E084179507A60759
:100CA000B70728F48191DF0112978C93F1CFC90126
:100CB000880D991DF801E80FF91FDF0111971C92AB
:100CC00021503109020F131FD70119961C930E935F
:100CD00018972181428150E070E060E0BA01552709
:100CE0004427522B2081422B2381722BF70142870C
:100CF00053876487758704962C960FB6F894DEBFE9
:100D00000FBECDBFDF91CF911F910F91FF90EF905C
:100D1000DF90CF90BF90AF909F908F907F906F901B
:100D20005F904F90089580EC93E0089581EE93E0FA
:100D30000895FC01DB014C9150E070E060E04283DB
:100D400053836483758311968C911197582B42833A
:100D500053836483758312968C911297682B428318
:100D600053836483758313968C911397782B4283F6
:100D700053836483758314964C91149750E070E00C
:100D800060E0468357836087718715968C9115972D
:100D9000582B468357836087718716968C911697D8
:100DA000682B468357836087718717968C91782BC1
:100DB000468357836087718788E090E00895DC015F
:100DC000FB0112968C911297808313968C91139746
:100DD000818314968C911497828315968C91159724
:100DE000838316968C911697848317968C91179708
:100DF000858318968C911897868319968C91878392
:100E000088E090E00895CF92DF92EF92FF920F93E7
:100E10001F93FC01DB01C3800C2D10E030E020E0CB
:100E200045E036952795179507954A95D1F70D9387
:100E30001D932D933C9313978481C82ED12CF12CB4
:100E4000E12C53E0CC0CDD1CEE1CFF1C5A95D1F7B5
:100E5000C02AD12AE22AF32ACD92DD92ED92FC92A9
:100E600013978581082F10E030E020E06BE0000F41
:100E7000111F221F331F6A95D1F70C291D292E2916
:100E80003F290D931D932D933C931397468150E07A
:100E900070E060E083E1440F551F661F771F8A955D
:100EA000D1F74427552768777727042B152B262B56
:100EB000372B0D931D932D933C931397478150E04F
:100EC00070E060E094E0440F551F661F771F9A950D
:100ED000D1F7407F577066277727C680D12CF12C39
:100EE000E12C84E0F694E794D794C7948A95D1F7DF
:100EF0004C295D296E297F29411551056105710530
:100F0000A1F0405853406109710997E1440F551F02
:100F1000661F771F9A95D1F7402B512B622B732BAD
:100F20004D935D936D937C931397478150E070E0F0
:100F300060E0742F662755274427442755276627E6
:100F400070780D911D912D913C911397402B512B51
:100F5000622B732B4D935D936D937C93139788E075
:100F600090E01F910F91FF90EF90DF90CF90089548
:100F7000EF92FF920F931F93CF93DF938C017B012E
:100F8000BC016E5F7F4FC7010E940307EC01B801EF
:100F90006A5F7F4FC7018C0F9D1F0E940307C80F18
:100FA000D91FB801665F7F4FC7018C0F9D1F0E943C
:100FB00003078C0F9D1FDF91CF911F910F91FF9021
:100FC000EF900895EF92FF920F931F93CF93DF93CB
:100FD0007C01EB0102960E94B8078C01BE01680FEC
:100FE000791FC70140960E94B807800F911FDF91BB
:100FF000CF911F910F91FF90EF9008950F931F9342
:10100000CF93DF938C01EC012696CE010E94E2077C
:10101000D8019496ED91FC91CE01DF91CF911F9173
:101020000F9109948F929F92AF92BF92CF92DF92CD
:10103000EF92FF92CF93DF93EC014A015B01DB015A
:10104000CA0147E1B595A795979587954A95D1F738
:101050009927AA27BB270097A105B10521F0805841
:101060009C4FAF4FBF4F188219821A82B501A4015D
:1010700025E0440F551F661F771F2A95D1F74B8334
:10108000B501A40133E075956795579547953A9555
:10109000D1F74C83B501A401EBE0759567955795A1
:1010A0004795EA95D1F74D83B501A401F3E1759514
:1010B000679557954795FA95D1F74F706C017D016B
:1010C00024E0CC0CDD1CEE1CFF1C2A95D1F74C292A
:1010D0004E836C017D0134E0F594E794D794C79476
:1010E0003A95D1F720E030E0A901C501B4010E9492
:1010F000011787FD0EC0CF8288E090E0DF91CF918D
:10110000FF90EF90DF90CF90BF90AF909F908F9027
:1011100008958C2D80688F83EFCFEF92FF920F930D
:101120001F93CF93DF937C018B01FC01428153819C
:1011300064817581C8010E941208EC01F7014681A3
:10114000578160857185C8018C0F9D1F0E94120810
:10115000C80FD91FF7014285538564857585C8017D
:101160008C0F9D1F0E9412088C0F9D1FDF91CF9145
:101170001F910F91FF90EF900895EF92FF920F93C0
:101180001F93CF93DF937C01EB0102960E948D08A1
:101190008C01BE01680F791FC70140960E948D081F
:1011A000800F911FDF91CF911F910F91FF90EF90D2
:1011B00008952F923F924F925F926F927F928F92FB
:1011C0009F92AF92BF92CF92DF92EF92FF920F93D6
:1011D0001F93CF93DF93CDB7DEB72E970FB6F8945A
:1011E000DEBF0FBECDBF8C016B01DB018D909D90EA
:1011F000AD90BC90FC0182819381A481B58188155A
:101200009905AA05BB0570F4B401660F771F660F38
:10121000771F828593850E94D218D8011B969C93D4
:101220008E931A97F80182829382A482B582C601B6
:1012300040E050E0BA01A4E0EA2EF12C98012A5FC8
:101240003F4FDC011596EC91159716964C9016972A
:10125000512C712C612C3201552444245E2A1496A1
:10126000EC9114974E2A1796EC917E2AD70117011C
:10127000E4E02E0E311C71010496F8018280938007
:10128000A480B580481559056A057B05A8F44682F7
:101290005782608671861497A284B384AA0DBB1D01
:1012A000E4E0BE2EF90101900D92BA94E1F74F5F90
:1012B0005F4F6F4F7F4FC5CF84859585A685B785D6
:1012C00084159505A605B70570F4B201660F771F62
:1012D000660F771F848995890E94D218D801559688
:1012E0009C938E935497F80144865586668677863C
:1012F000C601820D931D412C512C32011C01980115
:10130000205F3F4FDC0111966C91119712968C90E3
:101310001297912CB12CA12C540199248824962A3F
:101320006C91862A13966C91B62AB4E0EB0EF11CF0
:10133000F801448555856685778544165506660609
:101340007706C0F4808A918AA28AB38ABC016219A6
:101350007309A489B589A60FB71F64E0F90101904C
:101360000D926A95E1F7BFEF4B1A5B0A6B0A7B0A95
:101370000496C8CF86899789A08DB18D8815990567
:10138000AA05BB0560F4B401660F771F848D958DA7
:101390000E94D218D8015D969C938E935C97F801B9
:1013A000868A978AA08EB18E412C512C3201180169
:1013B000FAE12F0E311CF80186899789A08DB18D35
:1013C000481659066A067B0608F05CC0B6016E0D29
:1013D0007F1DCE0101960E94450497012C5F3F4F6F
:1013E0003E872D8789809A80AB80BC80C901032EFF
:1013F000000CAA0BBB0BAC01BD01480D591D6A1DA9
:101400007B1D49875A876B877C87F901EC0DFD1D91
:101410009F012C193D09B90190E080E029853A85AA
:101420004B855C85621773078407950728F4219123
:10143000DF0112972C93ECCFED84FE84E80CF91CAD
:10144000F601EE0DFF1D319710828D859E85019767
:101450008C0D9D1DD8015B969C938E935A97C2016B
:10146000880F991F5C96ED91FC91E80FF91FD1014F
:101470008D919C9191838083BFEF4B1A5B0A6B0A1D
:101480007B0A99CFC7012E960FB6F894DEBF0FBE28
:10149000CDBFDF91CF911F910F91FF90EF90DF9023
:1014A000CF90BF90AF909F908F907F906F905F9004
:1014B0004F903F902F9008952F923F924F925F92BE
:1014C0006F927F928F929F92AF92BF92CF92DF9254
:1014D000EF92FF920F931F93CF93DF93CDB7DEB7B9
:1014E000A6970FB6F894DEBF0FBECDBF8C010E9449
:1014F00018024B015C01980125543D4F3E8B2D8B0A
:10150000F90180819181A281B38175016401C81ABA
:10151000D90AEA0AFB0AD701C601893F9A42A10506
:10152000B10510F035971082180134E5231A3DEF0C
:10153000330AD1018D919C91892B79F0F801E15406
:10154000FD4F80819181A281B38188159905AA05FB
:10155000BB0518F4F1011182108298012C543D4F03
:101560003A8B298BA80140555D4F5C8B4B8BC80192
:101570004896988F8F8BD801AA54BD4FBC8FAB8FE4
:10158000F801EC53FD4FFE8FED8F215F3F4F38A3E5
:101590002F8F42505109588B4F8786569D4F9A8FF7
:1015A000898F1996BAA3A9A3A50194012C5E3F4F78
:1015B0004F4F5F4F2BA33CA34DA35EA3F80184893B
:1015C0009589A689B789892B8A2B8B2BB9F5D801E8
:1015D00012968D919C91DC01ED91FC910284F38532
:1015E000E02D09959C0197FF3DC0F801EA54FD4F9D
:1015F0008081882301F17801B9E4EB1ABDEFFB0A81
:10160000F70180819181A281B381A5019401281BFA
:10161000390B4A0B5B0BDA01C901853C9940A105E6
:10162000B10548F0C8010E940D04D7018D929D922A
:10163000AD92BC92139790E080E0B8C10E9418026E
:10164000681979098A099B09F801C488D588E68850
:10165000F788C616D706E806F90608F0B8CF8EEF69
:101660009FEFA4C1A989BA898D919C911197820F8E
:10167000931F8D939C93F101408151814730510517
:10168000F9F4A98DBA8D8D919C911197AC014F5FA2
:101690005F4F4D935C93800F911FFC01208FAF85AE
:1016A000B8898D919C91119701978D939C93892B6B
:1016B00009F084CF88E090E0F101918380837ECFB0
:1016C0004115510521F52F3F310581F481E090E06E
:1016D00091838083CBA0DCA0EDA0FEA0A9A1BAA13C
:1016E000CD92DD92ED92FC92139768CF0E94180282
:1016F000681979098A099B0969387341810591053F
:1017000008F45CCFF801EA54FD4F1082A8CF4130B5
:10171000510589F42E3F310519F482E090E0CCCFD9
:1017200011821082EB8DFC8D8081811147CFC80121
:101730000E940D0443CF4230510591F4AF85B88922
:101740002D933C93E98DFA8D1182108283E090E015
:10175000D1018D939C93E989FA89318320832ECF1F
:101760004330510571F4322F2227AF85B8898D910E
:101770009C911197280F391F2D933C9384E090E0A2
:101780009BCF4430510579F460E071E00E942A1645
:101790008F3F910529F485E090E0918380830ECFFF
:1017A000118210820BCF4530510569F4AB89BC8999
:1017B0002D933C9386E090E091838083A989BA8938
:1017C0002D933C93FBCE46305105A1F4322F2227B6
:1017D000EB89FC8980819181280F391F3183208317
:1017E00087E090E0D1018D939C93EF85F88980810B
:1017F00091815DCF4830510509F0E0CE1182108211
:1018000060E071E00E942A168F3F910509F0D6CE64
:10181000AB89BC89ED91FC91309709F0E0C0C8011B
:101820000E940D048AE291E09A8389831C821B82C4
:1018300083E392E09E838D8398878F839A8789873D
:101840001B861C861D861E866801B8EBCB1ABDEF71
:10185000DB0A7801E6E8EE1AEDEFFE0A28E1422EF7
:1018600055245394612C712CD601ED91FC91309745
:10187000A9F1848195819C838B83808191819E8352
:101880008D8382819381DC01ED91FC910480F5814F
:10189000E02D099598878F83D601ED91FC91828187
:1018A0009381DC01ED91FC910680F781E02D099593
:1018B0009A8789874B865C866D867E86D601ED91F8
:1018C000FC9160857185D801ED91FC910190F081CA
:1018D000E02DAE014F5F5F4FC8010995B2E0CB0E1E
:1018E000D11CEC14FD0409F0BFCF98E1492E55241A
:1018F0005394612C712CF701A081B1811097E1F113
:1019000012968D919C9113979C838B8314968D9145
:101910009C9115979E838D83ED91FC911197048086
:10192000F581E02DCD01099598878F83D7018D91A1
:101930009C91DC01ED91FC910680F781E02D0995E9
:101940009A8789874B865C866D867E86D801ED9165
:10195000FC91C080D180F70180819181DC01ED9103
:10196000FC910280F381E02D0995AE014F5F5F4F3E
:10197000BC01C801F6010995F2E0EF0EF11CE2147A
:10198000F30409F0B8CFF801EA54FD4F81E08083F9
:10199000319680829182A282B382AD89BE898D9276
:1019A0009D92AD92BC9213978FEF9FEFA6960FB6C4
:1019B000F894DEBF0FBECDBFDF91CF911F910F9185
:1019C000FF90EF90DF90CF90BF90AF909F908F905F
:1019D0007F906F905F904F903F902F900895EA30E6
:1019E000F10509F0A1C086E391E09A8389831B8207
:1019F0001C821D821E821F82188619861A860E94EA
:101A00001802F801C084D184E284F3849B01AC0104
:101A10002C193D094E095F0969017A016F89788D9A
:101A2000CE0101960E949906C701B60128EE33E067
:101A300040E050E00E943E1669017A019B01AC0132
:101A40008B819C81AD81BE818C0D9D1DAE1DBF1D06
:101A50008B839C83AD83BE8360E472E48FE090E06F
:101A60000E941A16CF80D884E984FA84DC01CB0165
:101A70008C0D9D1DAE1DBF1D8F839887A987BA87CA
:101A80000E941802CF80D884E984FA8436E3D31AFE
:101A900035E6E30A34ECF30A28EE33E040E050E0A8
:101AA0000E943E1629013A019B01AC0160E472E4F8
:101AB0008FE090E00E941A16A7019601261B370BB3
:101AC000480B590BCA01B9012B813C814D815E81C4
:101AD000215031094109510969017A01C418D50819
:101AE000E608F7082601370120E03AEC4AE95BE313
:101AF0000E943E16420E531E641E751ED8011C968F
:101B00004D925D926D927C921F97F801608B718B64
:101B1000828B938B0E941802AD89BE896D937D9351
:101B20008D939C9313974ACDE630F10559F46F8954
:101B3000788D8D8D9E8D0E94D90881E0EF8DF8A162
:101B400080833CCDEB30F10521F4AB8DBC8D1C9234
:101B500035CDE752FF4FEE0FFF1FE00FF11F8081E1
:101B60009181009709F42ACDDC01ED91FC9101905F
:101B7000F081E02D6F89788D099520CD4F925F928D
:101B80006F927F928F929F92AF92BF92CF92DF928D
:101B9000EF92FF920F931F93CF93DF93EC017B01A2
:101BA0008A81FB0180838B8181838C8182838D81FB
:101BB00083833496412C512C320104E010E09F01C4
:101BC0002F5F3F4FCF010296DF011396A8010C5FF4
:101BD0001F4F8A809B80AC80BD80481459046A04E2
:101BE0007B04C8F4AA85BB85A40FB51F14974C913C
:101BF00011962C91119712969C91129713968C9195
:101C000040832183928383838FEF481A580A680A9E
:101C1000780A3496D4CF4C8540834D85F9014083B2
:101C20002E85FC0120838F858C93F701E00FF11F37
:101C3000412C512C3201AF019F012F5F3F4FCF014B
:101C40000296DF0113960C5F1F4F8C849D84AE8437
:101C5000BF84481459046A047B04D8F4CF01841B60
:101C6000950BAC89BD89A80FB91F3C9111962C9199
:101C7000119712969C91129713968C913083218321
:101C8000928383838FEF481A580A680A780A349639
:101C9000D3CF4E8940834F89F9014083288DFC01C1
:101CA0002083898D8C93412C512C32018E899F8900
:101CB000A88DB98D481659066A067B0680F5520133
:101CC000AA0CBB1CEC8DFD8DEA0DFB1DA081B18122
:101CD000FD0101900020E9F731976F01CA1ADB0A74
:101CE000A60170E060E0C701800F911F0E9476049A
:101CF0000C5F1F4F8C8D9D8DA80EB91EF501608164
:101D00007181A601C701800F911F0E948F190C0DD0
:101D10001D1DFFEF4F1A5F0A6F0A7F0AC7CFC80168
:101D2000DF91CF911F910F91FF90EF90DF90CF90B7
:101D3000BF90AF909F908F907F906F905F904F90EB
:101D40000895EF92FF920F931F93CF93DF938C012F
:101D50007B01DC0112962C911297FB012193CF019C
:101D60001396ED91FC91EF0109900020E9F721977E
:101D7000CE1BDF0BAE0170E060E00E947604D8015C
:101D800013966D917C91AE01C70105960E948F1943
:101D9000CE010596DF91CF911F910F91FF90EF90AB
:101DA0000895CF92DF92EF92FF920F931F93CF93FC
:101DB000DF936C01EB01DC0112968C911297888302
:101DC00013968C91139789831496ED91FC91DF0102
:101DD0000D900020E9F78D01015011090E1B1F0B1A
:101DE000A80170E060E0CE0102960E947604F60140
:101DF00064817581A801CE0106960E948F19C801E1
:101E00000696F601A681B781FD0101900020E9F751
:101E100031977F01EA1AFB0AA70170E060E08C0F9E
:101E20009D1F0E947604065F1F4FD60116966D9186
:101E30007C91A701CE01800F911F0E948F190E0D7A
:101E40001F1DF601A085B185FD0101900020E9F775
:101E500031977F01EA1AFB0AA70170E060E0CE012A
:101E6000800F911F0E9476040C5F1F4FD6011896B9
:101E70006D917C91A701CE01800F911F0E948F1957
:101E8000C701800F911FF601628543853485258542
:101E9000C80FD91F688349833A832B830496DF9147
:101EA000CF911F910F91FF90EF90DF90CF90089509
:101EB0001F920F920FB60F9211242F933F938F937F
:101EC0009F93AF93BF9380913D0490913E04A09166
:101ED0003F04B091400430913C0423E0230F2D37A0
:101EE00058F50196A11DB11D20933C0480933D043B
:101EF00090933E04A0933F04B09340048091380433
:101F000090913904A0913A04B0913B040196A11D2F
:101F1000B11D8093380490933904A0933A04B09390
:101F20003B04BF91AF919F918F913F912F910F9063
:101F30000FBE0F901F90189526E8230F0296A11D43
:101F4000B11DD2CF1F920F920FB60F9211242F9373
:101F50003F934F935F936F937F938F939F93AF9331
:101F6000BF93EF93FF93E0910201F0910301099574
:101F7000FF91EF91BF91AF919F918F917F916F9161
:101F80005F914F913F912F910F900FBE0F901F9037
:101F900018951F920F920FB60F9211242F933F9313
:101FA0004F935F936F937F938F939F93AF93BF9361
:101FB000EF93FF93E0910001F09101010995FF91EA
:101FC000EF91BF91AF919F918F917F916F915F91B1
:101FD0004F913F912F910F900FBE0F901F9018952A
:101FE0001F920F920FB60F9211242F933F934F938E
:101FF0005F936F937F938F939F93AF93BF93EF9371
:10200000FF9381E494E00E94CD02FF91EF91BF9194
:10201000AF919F918F917F916F915F914F913F9180
:102020002F910F900FBE0F901F9018951F920F9237
:102030000FB60F9211242F938F939F93EF93FF93DB
:10204000E0915104F09152048081E0915704F091A5
:10205000580482FD1BC0908180915A048F5F8F735A
:1020600020915B04821741F0E0915A04F0E0EF5BAD
:10207000FB4F958F80935A04FF91EF919F918F9121
:102080002F910F900FBE0F901F9018958081F4CF65
:10209000109244041092430488EE93E0A0E0B0E074
:1020A0008093450490934604A0934704B09348045A
:1020B0008EE491E0909342048093410485EC90E09B
:1020C00090934E0480934D0484EC90E090935004E0
:1020D00080934F0480EC90E09093520480935104DD
:1020E00081EC90E0909354048093530482EC90E050
:1020F000909356048093550486EC90E09093580496
:102100008093570410925A0410925B0410925C045E
:1021100010925D0482EB91E09093F3078093F207B5
:1021200086EA91E09093F5078093F4071092F70701
:102130001092F6079093F9078093F8071092FB0727
:102140001092FA078AE991E09093FD078093FC07CB
:102150001092FE071092FF071092000810920108DB
:1021600090930308809302081092040810920508C7
:1021700010920608109207088EE891E090930908E3
:102180008093080810920A0884E891E09093110562
:102190008093100581E494E09093130580931205D9
:1021A00080E091EEA0E0B0E08093140590931505D7
:1021B000A0931605B09317051092C60788E791E023
:1021C0009093D5078093D4071092EA071092EB07FB
:1021D0001092EC071092ED071092F1071092F007A1
:1021E000E8E5F7E01192119287E0EA38F807D1F7B5
:1021F000EAE8F7E01192119287E0EC3BF807D1F79B
:10220000E8E2F5E080E496E011928E179F07E1F78F
:10221000E0E4F6E0119287E0E835F807D9F710928C
:10222000D6071092D7071092D8071092D9071092AC
:10223000DF071092DE071092E0071092E10710927C
:10224000E2071092E3071092E9071092E807109254
:1022500024051092250510922605109227058EEB75
:1022600091E09093E9048093E8048CE691E09093E8
:10227000EF048093EE0480E691E09093F104809364
:10228000F0041092F2041092F3041092F4041092ED
:10229000F5041092F6041092F7041092F8041092CC
:1022A000F9041092FA041092FB041092FC041092AC
:1022B000FD049093FF048093FE0410920005109299
:1022C0000105109202051092030510920405109268
:1022D0000505109206051092070510920805109248
:1022E000090510920A0510920B058CE890E0909376
:1022F0000D0580930C0581E090E090930F0580938D
:102300000E058FEE93E09093ED048093EC0488EF3C
:1023100093E09093DF048093DE0482EF97E0909344
:10232000E1048093E0041092E7041092E60408951B
:10233000CF93DF93CDB7DEB728970FB6F894DEBF03
:102340000FBECDBF789484B5826084BD84B58160B2
:1023500084BD85B5826085BD85B5816085BD809170
:102360006E00816080936E001092810080918100E8
:1023700082608093810080918100816080938100E0
:10238000809180008160809380008091B1008460A2
:102390008093B1008091B00081608093B000809103
:1023A0007A00846080937A0080917A0082608093C2
:1023B0007A0080917A00816080937A0080917A001F
:1023C000806880937A001092C10061E089E00E94E9
:1023D000700161E08AE00E94700161E08BE00E9480
:1023E000700161E087E00E94700161E088E00E9476
:1023F000700161E086E00E94700160E083E00E946D
:10240000700160E085E00E94700160E082E00E945F
:10241000700160E082E00E9470010E94FE01209144
:102420001205309113053A832983C0901405D0908A
:102430001505E0901605F090170560E079E08DE352
:1024400090E0A70196010E943E16215031094109F2
:1024500051095695479537952795A981BA81509688
:10246000ED91FC9182E08083C114B1EEDB06E104C2
:10247000F10421F02115E0E13E07B0F0A981BA8115
:102480005096ED91FC91108260E874E88EE190E046
:10249000A70196010E943E162150310941095109B8
:1024A0005695479537952795A981BA811C96ED9148
:1024B000FC911D9730831E96ED91FC911F97208310
:1024C00058961C9258975496ED91FC91559786E03A
:1024D00080835296ED91FC91539780818061808337
:1024E0005296ED91FC91539780818860808352963B
:1024F000ED91FC9153978081806880835296ED9195
:10250000FC9180818F7D80831092BD071092BC0763
:102510001092BF071092BE071092C3071092C20715
:102520001092C1071092C00780E091EEA0E0B0E0E9
:102530008093140590931505A0931605B093170585
:10254000EAE8F7E090E080E021913191232B09F057
:10255000CDC2FC01EE0FFF1FE657F84F28EE34E026
:10256000318320838C599F4F9093EB048093EA042E
:10257000E8E5F7E090E080E021913191232B09F02C
:10258000BBC2FC01EE0FFF1FE85AF84F2EED34E0FE
:102590003183208383589F4F9093E3048093E20418
:1025A00080E195E09093E5048093E40484E292E076
:1025B0009093030180930201809169008C60809365
:1025C0006900E99A89E392E0909301018093000108
:1025D00080916900836080936900E89A0E941802E4
:1025E00060930A0470930B0480930C0490930D0481
:1025F00000E010E08FB7F894A0903604B090370454
:10260000E0913404F0913504FE83ED838FBF3FB732
:10261000F8948091380490913904A0913A04B091D3
:102620003B0426B5A89B05C02F3F19F00196A11DBC
:10263000B11D3FBFBA2FA92F982F8827820F911D58
:10264000A11DB11D6C017D0142E0CC0CDD1CEE1C16
:10265000FF1C4A95D1F78091300490913104A091EC
:102660003204B0913304A7019601281B390B4A0BA1
:102670005B0BCA01B9010E94B01720E034E244E7C5
:1026800059E40E94061769837A838B839C83809127
:102690002E0490912F04B501681B790B072E000CB6
:1026A000880B990B0E94B01729813A814B815C817C
:1026B0000E9406172B013C01B0922F04A0922E0419
:1026C00080912C0490912D046D817E81681B790B83
:1026D000072E000C880B990B0E94B01729813A81B4
:1026E0004B815C810E9406174B015C014D815E812C
:1026F00050932D0440932C04C0923004D0923104A6
:10270000E0923204F092330420E030E846E554E4ED
:10271000C301B2010E94061720E030E040E752E416
:102720000E9465182B013C0120E030E846E554E4A6
:10273000C501B4010E94061720E030E040E752E4F2
:102740000E9465186D837E838F8398872EEB3FE907
:102750004AE55FE3609128047091290480912A047E
:1027600090912B040E9465184B015C012BE238E12B
:1027700045E95DE3C301B2010E9465189B01AC010C
:10278000C501B4010E9495164B015C012BE238E1B2
:1027900045E95DE36091240470912504809126044D
:1027A000909127040E9465189B01AC01C501B401FA
:1027B0000E9495164B015C01809228049092290496
:1027C000A0922A04B0922B04409224045092250433
:1027D00060922604709227042EEB3FE94AE55FE3FE
:1027E000609120047091210480912204909123042F
:1027F0000E9465182B013C012BE238E145E95DE3BD
:102800006D817E818F8198850E9465189B01AC0146
:10281000C301B2010E9495162B013C012BE238E165
:1028200045E95DE360911C0470911D0480911E04D4
:1028300090911F040E9465189B01AC01C301B20175
:102840000E9495166B017C01C0922004D092210455
:10285000E0922204F09223048D819E81AF81B8859D
:1028600080931C0490931D04A0931E04B0931F0436
:102870008092FE079092FF07A0920008B092010894
:10288000C0920408D0920508E0920608F09207086A
:1028900020E030E0A901C501B4010E9460181816BB
:1028A00024F0B7FAB094B7F8B094A501940160E0B1
:1028B00070E080EA91E40E9494162B013C01AC0187
:1028C0009B0169817A818B819C810E94651820918E
:1028D00018043091190440911A0450911B040E946D
:1028E00095164B015C018092180490921904A092F5
:1028F0001A04B0921B0420E030E040EA50E4C30127
:10290000B2010E9465182B013C0120E030E040E25A
:1029100051E4C501B4010E9465189B01AC01C301DB
:10292000B2010E9495169F770E9478177E836D836F
:102930006F3F710529F024F0EFEFF0E0FE83ED83A7
:102940002D813E813093F7072093F60720E030E099
:10295000A901C701B6010E946018181624F0F7FA01
:10296000F094F7F8F094A701960160E070E080EA37
:1029700091E40E9494164B015C01AC019B016981BA
:102980007A818B819C810E9465182091140430917A
:10299000150440911604509117040E9495166B017E
:1029A0007C01C0921404D0921504E0921604F092B7
:1029B000170420E030E040E251E4C501B4010E9478
:1029C00065184B015C0120E030E040EA51E4C701AA
:1029D000B6010E9465189B01AC01C501B4010E94BB
:1029E00095169F770E9478177B016F3F710521F044
:1029F0001CF0EE24EA94F12CF092FB07E092FA0727
:102A000020911204309113048091100490911104CC
:102A1000181619060CF076C081E090E01216130625
:102A200014F082E090E090930F0480930E04809362
:102A30000A08009709F078C010921804109219043F
:102A400010921A0410921B04109214041092150490
:102A500010921604109217040E94FE0170E060E0CC
:102A60008BE00E94A10170E060E086E00E94A1017D
:102A70000E941802C0900A04D0900B04E0900C044D
:102A8000F0900D046C197D098E099F09653671055A
:102A900081059105D8F08091E4049091E50460915E
:102AA000E2047091E304DC01ED91FC910190F0816E
:102AB000E02D42EF57E009950E94180260930A0446
:102AC00070930B0480930C0490930D0480E195E0C7
:102AD0000E945C0A0115110509F48CCD0E94B9020F
:102AE000882309F487CD0E94000084CD01968931A6
:102AF000910509F029CD3CCD01968931910509F068
:102B00003BCD54CD009711F437FD8BCF1216130631
:102B100044F0009709F487CF84E090E0232B09F07C
:102B200082CF83E090E07FCF81309105B9F461E0FE
:102B300089E00E94420160E08AE00E94420161E077
:102B400087E00E94420160E088E00E9442016D81BE
:102B50007E818BE00E94A101B70187CF8230910571
:102B600009F042C061E089E00E94420160E08AE031
:102B70000E94420160E087E00E94420161E088E03B
:102B80000E9442014D815E81BA01550F880B990B5D
:102B90000E94B0172AE939E949E15FE30E9465180C
:102BA0000E9478179B0177FF04C022273327261B3A
:102BB000370BB9018BE00E94A101B701FF0C880B14
:102BC000990B0E94B0172AE939E949E15FE30E94B5
:102BD00065180E9478179B0177FF04C022273327CE
:102BE000261B370BB90141CF60E00397B1F489E0B0
:102BF0000E94420161E08AE00E94420161E087E0B8
:102C00000E94420160E088E00E944201AD81BE81E5
:102C1000BD01BB0F880B990BBBCF89E00E9442011D
:102C200061E08AE00E94420160E087E00E94420188
:102C300061E08ACFDB018F939F930E946016BF9162
:102C4000AF91A29F800D911DA39F900DB29F900DFB
:102C50001124089597FB072E16F4009407D077FDF2
:102C600009D00E946B1607FC05D03EF49095819523
:102C70009F4F0895709561957F4F0895A1E21A2E98
:102C8000AA1BBB1BFD010DC0AA1FBB1FEE1FFF1F10
:102C9000A217B307E407F50720F0A21BB30BE40B60
:102CA000F50B661F771F881F991F1A9469F76095A7
:102CB0007095809590959B01AC01BD01CF01089561
:102CC0000E948516A59F900DB49F900DA49F800D26
:102CD000911D11240895AA1BBB1B51E107C0AA1F17
:102CE000BB1FA617B70710F0A61BB70B881F991FAD
:102CF0005A95A9F780959095BC01CD010895EE0FE6
:102D0000FF1F0590F491E02D0994A29FB001B39F9D
:102D1000C001A39F700D811D1124911DB29F700DE4
:102D2000811D1124911D08955058BB27AA270E9488
:102D3000AC160C9426180E94181838F00E941F1820
:102D400020F039F49F3F19F426F40C9415180EF472
:102D5000E095E7FB0C940F18E92F0E94371858F301
:102D6000BA17620773078407950720F079F4A6F570
:102D70000C9459180EF4E0950B2EBA2FA02D0B01D0
:102D8000B90190010C01CA01A0011124FF27591BB0
:102D900099F0593F50F4503E68F11A16F040A22FB6
:102DA000232F342F4427585FF3CF46953795279527
:102DB000A795F0405395C9F77EF41F16BA0B620B26
:102DC000730B840BBAF09150A1F0FF0FBB1F661F6D
:102DD000771F881FC2F70EC0BA0F621F731F841FB0
:102DE00048F4879577956795B795F7959E3F08F0D6
:102DF000B0CF9395880F08F09927EE0F9795879598
:102E000008950E94EB1708F481E008950E941A17B4
:102E10000C9426180E941F1858F00E94181840F0B1
:102E200029F45F3F29F00C940F1851110C945A1893
:102E30000C9415180E94371868F39923B1F35523A1
:102E400091F3951B550BBB27AA27621773078407BD
:102E500038F09F5F5F4F220F331F441FAA1FA9F353
:102E600035D00E2E3AF0E0E832D091505040E69541
:102E7000001CCAF72BD0FE2F29D0660F771F881FA2
:102E8000BB1F261737074807AB07B0E809F0BB0B95
:102E9000802DBF01FF2793585F4F3AF09E3F5105A9
:102EA00078F00C940F180C945A185F3FE4F3983E96
:102EB000D4F3869577956795B795F7959F5FC9F792
:102EC000880F911D9695879597F90895E1E0660F13
:102ED000771F881FBB1F621773078407BA0720F08C
:102EE000621B730B840BBA0BEE1F88F7E0950895F5
:102EF0000E947F176894B1110C945A1808950E948B
:102F00003F1888F09F5798F0B92F9927B751B0F024
:102F1000E1F0660F771F881F991F1AF0BA95C9F75D
:102F200014C0B13091F00E945918B1E008950C948A
:102F30005918672F782F8827B85F39F0B93FCCF33D
:102F4000869577956795B395D9F73EF490958095DA
:102F5000709561957F4F8F4F9F4F0895E89409C0FA
:102F600097FB3EF490958095709561957F4F8F4FBC
:102F70009F4F9923A9F0F92F96E9BB279395F695D2
:102F8000879577956795B795F111F8CFFAF4BB0F50
:102F900011F460FF1BC06F5F7F4F8F4F9F4F16C0B4
:102FA000882311F096E911C0772321F09EE8872F3E
:102FB000762F05C0662371F096E8862F70E060E0FA
:102FC0002AF09A95660F771F881FDAF7880F969573
:102FD000879597F90895990F0008550FAA0BE0E817
:102FE000FEEF16161706E807F907C0F012161306CB
:102FF000E407F50798F0621B730B840B950B39F40B
:103000000A2661F0232B242B252B21F408950A2670
:1030100009F4A140A6958FEF811D811D089597F9B0
:103020009F6780E870E060E008959FEF80EC08956E
:1030300000240A9416161706180609060895002497
:103040000A9412161306140605060895092E039411
:10305000000C11F4882352F0BB0F40F4BF2B11F485
:1030600060FF04C06F5F7F4F8F4F9F4F089557FDE4
:103070009058440F551F59F05F3F71F04795880FE6
:1030800097FB991F61F09F3F79F08795089512167D
:1030900013061406551FF2CF4695F1DF08C0161629
:1030A00017061806991FF1CF8695710561050894DA
:1030B0000895E894BB2766277727CB0197F90895F1
:1030C0000E94EB1708F48FEF08950E9478180C9473
:1030D00026180E94181838F00E941F1820F0952317
:1030E00011F00C940F180C94151811240C945A1804
:1030F0000E94371870F3959FC1F3950F50E0551F4C
:10310000629FF001729FBB27F00DB11D639FAA273C
:10311000F00DB11DAA1F649F6627B00DA11D661F8B
:10312000829F2227B00DA11D621F739FB00DA11DAC
:10313000621F839FA00D611D221F749F3327A00D66
:10314000611D231F849F600D211D822F762F6A2F02
:1031500011249F5750409AF0F1F088234AF0EE0F67
:10316000FF1FBB1F661F771F881F91505040A9F794
:103170009E3F510580F00C940F180C945A185F3F35
:10318000E4F3983ED4F3869577956795B795F795D0
:10319000E7959F5FC1F7FE2B880F911D9695879548
:1031A00097F90895B0E0A0E0E8EDF8E10C94BF1ABB
:1031B0008C01009751F4CB010E9498198C01C80131
:1031C000CDB7DEB7E0E10C94DB1AFC01E60FF71F88
:1031D0009C0122503109E217F30708F49DC0D90180
:1031E000CD91DC911197C617D70798F0C530D1055E
:1031F00030F3CE0104978617970708F3C61BD70B49
:103200002297C193D1936D937C93CF010E94341A7E
:10321000D6CF5B01AC1ABD0A4C018C0E9D1EA0914D
:103220000D08B0910E08512C412CF12CE12C109777
:1032300031F580910B0890910C088815990509F0DB
:103240005CC04616570608F058C080910401909162
:103250000501009741F48DB79EB740910801509148
:103260000901841B950BE817F90708F055C0F09386
:103270000C08E0930B08F90171836083A0CF8D9156
:103280009C91119712966C90129713967C901397BD
:10329000A815B90559F56C0142E0C40ED11CCA1439
:1032A000DB0420F1AC014A195B09DA01129615978B
:1032B00080F06282738251834083D9016D937C9345
:1032C000E114F10471F0D7011396FC93EE93129779
:1032D00076CF22968C0F9D1FF90191838083F30195
:1032E000EFCFF0930E08E0930D0869CF481659060A
:1032F00008F42C017D01D3019ACFCB010E949819CB
:103300007C01009749F0AE01B8010E948F19C801F5
:103310000E94341A870153CF10E000E050CFFB0128
:10332000DC0102C001900D9241505040D8F7089541
:103330000F931F93CF93DF938230910510F482E0B7
:1033400090E0E0910D08F0910E0830E020E0B0E050
:10335000A0E0309799F42115310509F44AC0281BE3
:10336000390B24303105D8F58A819B8161157105AF
:1033700089F1FB0193838283FE0111C04081518159
:103380000281138148175907E0F04817590799F44B
:10339000109761F012960C93129713961C93329625
:1033A000CF01DF91CF911F910F91089500930D08E8
:1033B00010930E08F4CF2115310551F04217530731
:1033C00038F0A901DB019A01BD01DF01F801C1CF8D
:1033D000EF01F9CF90930E0880930D08CDCFFE0139
:1033E000E20FF31F8193919322503109398328838F
:1033F000D7CF20910B0830910C08232B41F420915A
:1034000006013091070130930C0820930B0820919E
:103410000401309105012115310541F42DB73EB766
:103420004091080150910901241B350BE0910B08D4
:10343000F0910C08E217F307A0F42E1B3F0B28179E
:10344000390778F0AC014E5F5F4F2417350748F01D
:103450004E0F5F1F50930C0840930B08819391937C
:103460009FCFF0E0E0E09CCFCF93DF930097E9F0AF
:10347000FC01329713821282A0910D08B0910E08C0
:10348000ED0130E020E01097A1F420813181820F1E
:10349000931F20910B0830910C082817390709F069
:1034A00061C0F0930C08E0930B08DF91CF91089571
:1034B000EA01CE17DF07E8F54A815B819E014115DD
:1034C0005105B1F7E901FB83EA8349915991C40F92
:1034D000D51FEC17FD0761F4808191810296840F5E
:1034E000951FE90199838883828193819B838A83D5
:1034F000F0E0E0E012968D919C9113970097B9F55A
:103500002D913C911197CD010296820F931F20912E
:103510000B0830910C082817390739F6309751F508
:1035200010920E0810920D08B0930C08A0930B088F
:10353000BCCFD383C28340815181840F951FC817AC
:10354000D90761F44E5F5F4F88819981480F591FF9
:10355000518340838A819B81938382832115310526
:1035600009F0B0CFF0930E08E0930D089ECFFD0157
:10357000DC01C0CF13821282D7CF2F923F924F929D
:103580005F926F927F928F929F92AF92BF92CF92F3
:10359000DF92EF92FF920F931F93CF93DF93CDB7FC
:1035A000DEB7CA1BDB0B0FB6F894DEBF0FBECDBF74
:1035B00009942A88398848885F846E847D848C8445
:1035C0009B84AA84B984C884DF80EE80FD800C814E
:1035D0001B81AA81B981CE0FD11D0FB6F894DEBF31
:0C35E0000FBECDBFED010895F894FFCFA1
:1035EC004E024E0200000F088000726F73736572FA
:1035FC0069616C5F6D7367732F5265717565737458
:10360C00506172616D0000000000D10EA2059F0593
:10361C009C0500000000DF06990696069306000044
:10362C000000A10E46054305400500000000EF0216
:10363C004F027C023C03AD028B029F020000000093
:10364C008D08B8077F047C0400000000BD08E20769
:10365C006403610300000000BE0DD9083D053A0566
:10366C00000000006B035C0A5C03000000003305E3
:10367C002C052905260500000000CB048E048B04C4
:10368C008804000000001D05140511050E0500003E
:10369C000000DF049B048504820400000000FE0788
:1036AC006703640361033966313935663838313262
:1036BC003436666466613237393864316433656533
:1036CC006263613834610067656F6D657472795F30
:1036DC006D7367732F5477697374004D65737361E1
:1036EC0067652066726F6D2064657669636520641A
:1036FC00726F707065643A206D65737361676520D5
:10370C006C6172676572207468616E2062756666A2
:10371C0065722E003461383432623635663431339A
:10372C003038346463326231306662343834656107
:10373C00376631370067656F6D657472795F6D73CD
:10374C0067732F566563746F72330038636539394C
:10375C0036626561386232336432336239393638F5
:10376C006330633639393838363530006D657373EC
:10377C006167655F706B672F56656C5F6D73670073
:10378C0037336663626634366234393139316536C3
:10379C003732393038653530383432613833643447
:1037AC00007374645F6D7367732F466C6F61743351
:1037BC003200383532343538366533346662643726
:1037CC006362316330386335663566316361306509
:1037DC003537007374645F6D7367732F496E743182
:1037EC00360032376666613063396334623866623C
:1037FC003834393232353262636164396535633558
:10380C003762007374645F6D7367732F496E74381D
:10381C00003966306539386264613635393831398A
:10382C0038366464663533616661376134306534CB
:10383C0039003131616264373331633235393333B6
:10384C003236316364363138336264313264363245
:10385C00393500726F7373657269616C5F6D736774
:10386C00732F4C6F6700306164353166383866638E
:10387C00343438393266386331303638343037378F
:10388C0036343630303500726F7373657269616C23
:10389C005F6D7367732F546F706963496E666F0049
:1038AC0063643731363663373463353532633331DD
:1038BC00316662636332666535613762633238390B
:1038CC00007374645F6D7367732F54696D65002F9B
:1038DC00636D645F76656C002F70776D5F696E66E3
:0238EC006F006B
:00000001FF
