:100000000C945D000C9485000C9485000C94850084
:100010000C9485000C9485000C9485000C9485004C
:100020000C9485000C9485000C9485000C9485003C
:100030000C9485000C9485000C9485000C9485002C
:100040000C946B0E0C9485000C94DB0E0C94B50E86
:100050000C9485000C9485000C9485000C9485000C
:100060000C9485000C9485000000000024002700FB
:100070002A0000000000250028002B0004040404CE
:100080000404040402020202020203030303030342
:10009000010204081020408001020408102001021F
:1000A00004081020000000080002010000030407FB
:1000B00000000000000000000D0F11241FBECFEF54
:1000C000D8E0DEBFCDBF13E0A0E0B1E0ECE1FDE29F
:1000D00002C005900D92A638B107D9F727E0A6E82F
:1000E000B3E001C01D92A635B207E1F710E0CDE5FF
:1000F000D0E004C02197FE010E945912CC35D107EF
:10010000C9F70E943B100C948C160C9400008F923F
:100110009F92AF92BF92CF92DF92EF92FF92CF93D6
:10012000DF93EC0128EB3EE145E05DE36C817D81EE
:100130008E819F810E94E0126B017C012DE33AE0E9
:1001400047E95EE36A8D7B8D8C8D9D8D0E94FD134A
:1001500028EB3EE145E85DE30E94E0124B015C01C3
:10016000AC019B01C701B6010E946F120E9452139D
:100170006F3F710519F014F06FEF70E061308FEF91
:10018000780714F461E07FEF70938D0360938C0324
:100190007093510760935007A5019401C701B60100
:1001A0000E946E120E9452136F3F710519F014F0F5
:1001B0006FEF70E061308FEF780714F461E07FEF4C
:1001C00070938B0360938A0370934D0760934C0781
:1001D000DF91CF91FF90EF90DF90CF90BF90AF90E5
:1001E0009F908F90089590E0FC01EC55FF4F249173
:1001F000FC01E057FF4F3491FC01E458FF4FE491BC
:10020000EE23C9F0222339F0233001F1A8F4213084
:1002100019F1223029F1F0E0EE0FFF1FEE58FF4FE9
:10022000A591B4918FB7F894EC91611126C03095E7
:100230003E233C938FBF08952730A9F02830C9F0A2
:10024000243049F7809180008F7D03C08091800029
:100250008F7780938000DFCF84B58F7784BDDBCF2D
:1002600084B58F7DFBCF8091B0008F778093B000F5
:10027000D2CF8091B0008F7DF9CF3E2BDACFCF93D4
:10028000DF9390E0FC01E057FF4F249184589F4F8B
:10029000FC0184918823D1F090E0880F991FFC0124
:1002A000E859FF4FA591B491FC01EE58FF4FC5915D
:1002B000D49161110EC09FB7F8948C91E22FE09514
:1002C0008E238C932881E223E8839FBFDF91CF9117
:1002D00008958FB7F894EC91E22BEC938FBFF6CF93
:1002E0001F93CF93DF93182FEB0161E00E943F0132
:1002F000209739F460E0812FDF91CF911F910C940A
:10030000F300CF3FD10511F461E0F5CFE12FF0E02C
:10031000EC55FF4FE491E33031F140F4E130B1F0BE
:10032000E230E1F0C038D1057CF7E4CFE73029F1C5
:10033000E83059F1E430B1F7809180008062809319
:100340008000D0938B00C0938A0004C084B580687D
:1003500084BDC7BDDF91CF911F91089584B58062A0
:1003600084BDC8BDF7CF80918000806880938000F5
:10037000D0938900C0938800EDCF8091B000806851
:100380008093B000C093B300E5CF8091B00080624D
:100390008093B000C093B400DDCF2FB7F894609184
:1003A00093037091940380919503909196032FBFCE
:1003B0000895AF92BF92CF92DF92EF92FF920F9388
:1003C0001F93CF93DF936C017B018B01040F151FEB
:1003D000EB015E01AE18BF08C017D10759F0699153
:1003E000D601ED91FC910190F081E02DC6010995B7
:1003F000892B79F7C501DF91CF911F910F91FF9064
:10040000EF90DF90CF90BF90AF900895FC01538D97
:10041000448D252F30E0842F90E0821B930B5417DE
:1004200010F0CF96089501970895FC01918D828D6B
:10043000981761F0A28DAE0FBF2FB11D5D968C9104
:10044000928D9F5F9F73928F90E008958FEF9FEF43
:100450000895FC01918D828D981731F0828DE80FFF
:10046000F11D858D90E008958FEF9FEF0895FC01B9
:10047000918D228D892F90E0805C9F4F821B910986
:100480008F739927089587E993E00E94370221E04E
:10049000892B09F420E0822F089580E090E0892BD9
:1004A00029F00E94430281110C9400000895FC0180
:1004B000A48DA80FB92FB11DA35ABF4F2C91848DC5
:1004C00090E001968F739927848FA689B7892C9322
:1004D000A089B1898C91837080648C93938D848D75
:1004E000981306C00288F389E02D80818F7D808378
:1004F0000895EF92FF920F931F93CF93DF93EC0138
:1005000081E0888F9B8D8C8D98131AC0E889F989BA
:10051000808185FF15C09FB7F894EE89FF896083BD
:10052000E889F98980818370806480839FBF81E03E
:1005300090E0DF91CF911F910F91FF90EF90089580
:10054000F62E0B8D10E00F5F1F4F0F731127E02E5B
:100550008C8D8E110CC00FB607FCFACFE889F98993
:10056000808185FFF5CFCE010E945702F1CFEB8D40
:10057000EC0FFD2FF11DE35AFF4FF0829FB7F89467
:100580000B8FEA89FB8980818062CFCFCF93DF9385
:10059000EC01888D8823B9F0AA89BB89E889F9899B
:1005A0008C9185FD03C0808186FD0DC00FB607FCD0
:1005B000F7CF8C9185FFF2CF808185FFEDCFCE0103
:1005C0000E945702E9CFDF91CF9108958A549D4F41
:1005D000FC01808108958AEA91E008958BEC91E016
:1005E0000895FC0186A197A10895AF92BF92CF9282
:1005F000DF92EF92FF920F931F93CF93DF9300D080
:1006000000D01F92CDB7DEB7643671054CF0FC0107
:10061000EA54FD4F2081F12CE12C222309F476C00D
:10062000DA017B018C01BC01695C7E4FED91FC918C
:100630000190F081E02DCA010995680120EDC21AF0
:100640002EEFD20A2FEFD6012C93F801EF5CFE4F6C
:100650002EEF208331968083319690833196292F17
:10066000280F209520833196E0821696FC9245E073
:1006700050E030E020E0DC011696A417B50734F016
:100680006191260F311D4F5F5F4FF7CF7C01B8E0BE
:10069000EB0EF11C800F911FFC01E95CFE4F2095D1
:1006A0002083E9E1EE16E1E0FE06B4F45601C5014F
:1006B0008C199D098E159F054CF5D80112968D91C8
:1006C0009C91F50161915F01DC01ED91FC9101903C
:1006D000F081E02D0995EBCF8EE391E09A83898339
:1006E00083E08B838FED91E09D838C83D801ED9126
:1006F000FC910190F081E02DAE014F5F5F4F67E00C
:1007000070E0C8010995EE24EA94FE2CC7010F9011
:100710000F900F900F900F90DF91CF911F910F913D
:10072000FF90EF90DF90CF90BF90AF9008950F9320
:100730001F93CF93DF93CDB7DEB72A970FB6F89408
:10074000DEBF0FBECDBF8C0182E391E09A83898327
:100750001B821C821D821E821F82188619861A86A1
:10076000D801ED91FC910190F081E02DAE014F5F39
:100770005F4F6AE070E0C80109950E94CD01F80161
:1007800060877187828793872A960FB6F894DEBFB9
:100790000FBECDBFDF91CF911F910F910895CF92E2
:1007A000DF92EF92FF92DC011D921D921D921C922E
:1007B0001397FB0130E020E0419150E0022E02C08F
:1007C000440F551F0A94E2F7052E000C660B770BB9
:1007D000CD90DD90ED90FC9013974C295D296E290A
:1007E0007F294D935D936D937C931397285F3F4FC3
:1007F0002032310509F7FF90EF90DF90CF900895F8
:10080000FC014083518312821382089588E192E0B3
:10081000089589E392E008958FE492E0089580E7D7
:1008200092E00895FB0120813181FC01358324830E
:10083000FB0122813381FC013187208784E090E035
:100840000895DC01FB0114969C91149715968C91E8
:1008500015979083818318969C91189719968C917F
:100860009283838384E090E0089584E892E0089581
:1008700085EA92E00895FB0120813181FC013383F8
:10088000228382E090E00895FC0122818381FB01B4
:100890002083818382E090E0089584EB92E00895C4
:1008A00086E091E0089585ED92E0089586EF92E06C
:1008B00008954F925F926F927F928F929F92AF9224
:1008C000BF92EF92FF920F931F93CF93DF9300D0CD
:1008D00000D0CDB7DEB77C018B01FB018191BF0158
:1008E000F7018283CE0101960E94CF0389819A810C
:1008F000AB81BC814C015D01F5E08F0E911CA11C08
:10090000B11CA8014C5F5F4FFA0125E030E02901DE
:10091000712C612C481459046A047B0428F4618109
:1009200061932F5F3F4FF3CFF801E80FF91F148257
:10093000F7015483438305960F900F900F900F900B
:10094000DF91CF911F910F91FF90EF90BF90AF90EB
:100950009F908F907F906F905F904F90089589E067
:1009600093E008958AE293E008954F925F926F9228
:100970007F928F929F92AF92BF92CF92DF92EF922F
:10098000FF920F931F93CF93DF93CDB7DEB72C97D2
:100990000FB6F894DEBF0FBECDBF7C018B01DB012B
:1009A0008C9190E0F7019383828311962C91922B86
:1009B000938382836E5F7F4FCE0101960E94CF03A7
:1009C00089809A80AB80BC8024013501F6E04F0E0F
:1009D000511C611C711C98012B5F3F4FF90186E08F
:1009E00090E0AC0170E060E04415550566057705C0
:1009F00020F4418141930196F4CFB4016A5F7F4FA7
:100A0000F801E80DF91D1582D70115963C932E9338
:100A10001497600F711FCE0105960E94CF03BAE0B4
:100A20008B0E911C4D805E806F807884C401092CF0
:100A3000000CAA0BBB0B5C016D01A40CB51CC61C01
:100A4000D71CF801E80DF91DAF01401B510B70E0F8
:100A500060E04A155B056C057D0538F42191AF0116
:100A600042505109DA012C93EFCF480C591CB801C0
:100A7000640D751DFB0131971082C4010197800F31
:100A8000911FF70197838683CE0109960E94CF03B9
:100A900092012C5F3F4F89849A84AB84BC84A90166
:100AA000032E000C660B770B480D591D6A1D7B1D2C
:100AB000F801E20FF31FCF01801B910BB0E0A0E023
:100AC00084179507A607B70728F48191DF011297CD
:100AD0008C93F1CFC901880D991DF801E80FF91F1A
:100AE000DF0111971C9221503109020F131FD7010A
:100AF00019961C930E9318972181428150E070E063
:100B000060E0BA0155274427522B2081422B2381D4
:100B1000722BF701428753876487758704962C965A
:100B20000FB6F894DEBF0FBECDBFDF91CF911F91FE
:100B30000F91FF90EF90DF90CF90BF90AF909F907C
:100B40008F907F906F905F904F90089583E493E033
:100B5000089584E693E00895FC01DB014C9150E098
:100B600070E060E0428353836483758311968C91B7
:100B70001197582B428353836483758312968C910B
:100B80001297682B428353836483758313968C91E9
:100B90001397782B428353836483758314964C9107
:100BA000149750E070E060E0468357836087718758
:100BB00015968C911597582B4683578360877187BC
:100BC00016968C911697682B46835783608771879A
:100BD00017968C91782B468357836087718788E0BE
:100BE00090E00895DC01FB0112968C9112978083AE
:100BF00013968C911397818314968C91149782830A
:100C000015968C911597838316968C9116978483ED
:100C100017968C911797858318968C9118978683D1
:100C200019968C91878388E090E00895CF92DF92A7
:100C3000EF92FF920F931F93FC01DB01C3800C2DF9
:100C400010E030E020E045E03695279517950795B0
:100C50004A95D1F70D931D932D933C93139784815F
:100C6000C82ED12CF12CE12C53E0CC0CDD1CEE1C59
:100C7000FF1C5A95D1F7C02AD12AE22AF32ACD9235
:100C8000DD92ED92FC9213978581082F10E030E001
:100C900020E06BE0000F111F221F331F6A95D1F770
:100CA0000C291D292E293F290D931D932D933C932B
:100CB0001397468150E070E060E083E1440F551FD8
:100CC000661F771F8A95D1F74427552768777727BE
:100CD000042B152B262B372B0D931D932D933C9313
:100CE0001397478150E070E060E094E0440F551F97
:100CF000661F771F9A95D1F7407F57706627772731
:100D0000C680D12CF12CE12C84E0F694E794D794A2
:100D1000C7948A95D1F74C295D296E297F29411501
:100D2000510561057105A1F04058534061097109F1
:100D300097E1440F551F661F771F9A95D1F7402BF7
:100D4000512B622B732B4D935D936D937C93139773
:100D5000478150E070E060E0742F662755274427F4
:100D600044275527662770780D911D912D913C9150
:100D70001397402B512B622B732B4D935D936D93E7
:100D80007C93139788E090E01F910F91FF90EF9074
:100D9000DF90CF900895EF92FF920F931F93CF9320
:100DA000DF938C017B01BC016E5F7F4FC7010E9406
:100DB0001606EC01B8016A5F7F4FC7018C0F9D1FBB
:100DC0000E941606C80FD91FB801665F7F4FC70182
:100DD0008C0F9D1F0E9416068C0F9D1FDF91CF91D7
:100DE0001F910F91FF90EF900895EF92FF920F9354
:100DF0001F93CF93DF937C01EB0102960E94CB06F9
:100E00008C01BE01680F791FC70140960E94CB0676
:100E1000800F911FDF91CF911F910F91FF90EF9065
:100E200008950F931F93CF93DF938C01EC012696C7
:100E3000CE010E94F506D8019496ED91FC91CE0169
:100E4000DF91CF911F910F9109948F929F92AF9252
:100E5000BF92CF92DF92EF92FF92CF93DF93EC019C
:100E60004A015B01DB01CA0147E1B595A79597955A
:100E700087954A95D1F79927AA27BB270097A105FF
:100E8000B10521F080589C4FAF4FBF4F1882198297
:100E90001A82B501A40125E0440F551F661F771F74
:100EA0002A95D1F74B83B501A40133E07595679579
:100EB000579547953A95D1F74C83B501A401EBE0DE
:100EC0007595679557954795EA95D1F74D83B50187
:100ED000A401F3E17595679557954795FA95D1F774
:100EE0004F706C017D0124E0CC0CDD1CEE1CFF1C5E
:100EF0002A95D1F74C294E836C017D0134E0F5949D
:100F0000E794D794C7943A95D1F720E030E0A9014F
:100F1000C501B4010E94DB1287FD0EC0CF8288E0BC
:100F200090E0DF91CF91FF90EF90DF90CF90BF9056
:100F3000AF909F908F9008958C2D80688F83EFCF16
:100F4000EF92FF920F931F93CF93DF937C018B015E
:100F5000FC014281538164817581C8010E9425078B
:100F6000EC01F7014681578160857185C8018C0FBE
:100F70009D1F0E942507C80FD91FF7014285538581
:100F800064857585C8018C0F9D1F0E9425078C0FF5
:100F90009D1FDF91CF911F910F91FF90EF900895CA
:100FA000EF92FF920F931F93CF93DF937C01EB019E
:100FB00002960E94A0078C01BE01680F791FC7012D
:100FC00040960E94A007800F911FDF91CF911F9143
:100FD0000F91FF90EF9008952F923F924F925F9262
:100FE0006F927F928F929F92AF92BF92CF92DF9239
:100FF000EF92FF920F931F93CF93DF93CDB7DEB79E
:101000002E970FB6F894DEBF0FBECDBF8C016B01DB
:10101000DB018D909D90AD90BC90FC01828193810D
:10102000A481B58188159905AA05BB0570F4B401A2
:10103000660F771F660F771F828593850E946A145B
:10104000D8011B969C938E931A97F8018282938203
:10105000A482B582C60140E050E0BA01A4E0EA2EC5
:10106000F12C98012A5F3F4FDC011596EC91159702
:1010700016964C901697512C712C612C32015524E8
:1010800044245E2A1496EC9114974E2A1796EC91FC
:101090007E2AD7011701E4E02E0E311C710104965F
:1010A000F80182809380A480B580481559056A05AF
:1010B0007B05A8F446825782608671861497A284C5
:1010C000B384AA0DBB1DE4E0BE2EF90101900D9280
:1010D000BA94E1F74F5F5F4F6F4F7F4FC5CF848565
:1010E0009585A685B78584159505A605B70570F481
:1010F000B201660F771F660F771F848995890E945A
:101100006A14D80155969C938E935497F80144869F
:10111000558666867786C601820D931D412C512C1B
:1011200032011C019801205F3F4FDC0111966C9148
:10113000119712968C901297912CB12CA12C5401DE
:1011400099248824962A6C91862A13966C91B62A43
:10115000B4E0EB0EF11CF801448555856685778572
:101160004416550666067706C0F4808A918AA28ADC
:10117000B38ABC0162197309A489B589A60FB71F88
:1011800064E0F90101900D926A95E1F7BFEF4B1A07
:101190005B0A6B0A7B0A0496C8CF86899789A08D63
:1011A000B18D88159905AA05BB0560F4B401660FD9
:1011B000771F848D958D0E946A14D8015D969C934B
:1011C0008E935C97F801868A978AA08EB18E412C07
:1011D000512C32011801FAE12F0E311CF8018689D9
:1011E0009789A08DB18D481659066A067B0608F0CE
:1011F0005CC0B6016E0D7F1DCE0101960E94CF032B
:1012000097012C5F3F4F3E872D8789809A80AB8066
:10121000BC80C901032E000CAA0BBB0BAC01BD01A5
:10122000480D591D6A1D7B1D49875A876B877C872E
:10123000F901EC0DFD1D9F012C193D09B90190E04C
:1012400080E029853A854B855C85621773078407A2
:10125000950728F42191DF0112972C93ECCFED84B0
:10126000FE84E80CF91CF601EE0DFF1D319710828B
:101270008D859E8501978C0D9D1DD8015B969C9355
:101280008E935A97C201880F991F5C96ED91FC913D
:10129000E80FF91FD1018D919C9191838083BFEF5D
:1012A0004B1A5B0A6B0A7B0A99CFC7012E960FB6C1
:1012B000F894DEBF0FBECDBFDF91CF911F910F918C
:1012C000FF90EF90DF90CF90BF90AF909F908F9066
:1012D0007F906F905F904F903F902F9008952F9246
:1012E0003F924F925F926F927F928F929F92AF92B6
:1012F000BF92CF92DF92EF92FF920F931F93CF9303
:10130000DF93CDB7DEB7A6970FB6F894DEBF0FBE5A
:10131000CDBF8C010E94CD014B015C019801255489
:101320003D4F3E8B2D8BF90180819181A281B3814C
:1013300075016401C81AD90AEA0AFB0AD701C60175
:10134000893F9A42A105B10510F035971082180126
:1013500034E5231A3DEF330AD1018D919C91892BFD
:1013600079F0F801E154FD4F80819181A281B38130
:1013700088159905AA05BB0518F4F10111821082A0
:1013800098012C543D4F3A8B298BA80140555D4F55
:101390005C8B4B8BC8014896988F8F8BD801AA54D1
:1013A000BD4FBC8FAB8FF801EC53FD4FFE8FED8F1F
:1013B000215F3F4F38A32F8F42505109588B4F87E1
:1013C00086569D4F9A8F898F1996BAA3A9A3A50116
:1013D00094012C5E3F4F4F4F5F4F2BA33CA34DA377
:1013E0005EA3F80184899589A689B789892B8A2B00
:1013F0008B2BB9F5D80112968D919C91DC01ED9162
:10140000FC910284F385E02D09959C0197FF3DC076
:10141000F801EA54FD4F8081882301F17801B9E495
:10142000EB1ABDEFFB0AF70180819181A281B381A4
:10143000A5019401281B390B4A0B5B0BDA01C9018A
:10144000853C9940A105B10548F0C8010E94970369
:10145000D7018D929D92AD92BC92139790E080E05F
:10146000B8C10E94CD01681979098A099B09F80160
:10147000C488D588E688F788C616D706E806F90630
:1014800008F0B8CF8EEF9FEFA4C1A989BA898D91DA
:101490009C911197820F931F8D939C93F101408132
:1014A000518147305105F9F4A98DBA8D8D919C91E8
:1014B0001197AC014F5F5F4F4D935C93800F911F6D
:1014C000FC01208FAF85B8898D919C911197019770
:1014D0008D939C93892B09F084CF88E090E0F101F3
:1014E000918380837ECF4115510521F52F3F310532
:1014F00081F481E090E091838083CBA0DCA0EDA01B
:10150000FEA0A9A1BAA1CD92DD92ED92FC92139713
:1015100068CF0E94CD01681979098A099B09693849
:1015200073418105910508F45CCFF801EA54FD4F41
:101530001082A8CF4130510589F42E3F310519F4AE
:1015400082E090E0CCCF11821082EB8DFC8D808107
:10155000811147CFC8010E94970343CF4230510504
:1015600091F4AF85B8892D933C93E98DFA8D118262
:10157000108283E090E0D1018D939C93E989FA89F0
:10158000318320832ECF4330510571F4322F22272F
:10159000AF85B8898D919C911197280F391F2D9394
:1015A0003C9384E090E09BCF4430510579F460E0B7
:1015B00071E00E9404128F3F910529F485E090E0CC
:1015C000918380830ECF118210820BCF453051055D
:1015D00069F4AB89BC892D933C9386E090E09183BC
:1015E0008083A989BA892D933C93FBCE463051055F
:1015F000A1F4322F2227EB89FC8980819181280F69
:10160000391F3183208387E090E0D1018D939C9333
:10161000EF85F889808191815DCF4830510509F0CF
:10162000E0CE1182108260E071E00E9404128F3FD0
:10163000910509F0D6CEAB89BC89ED91FC9130972C
:1016400009F0E0C0C8010E94970386E291E09A8306
:1016500089831C821B8287E192E09E838D83988719
:101660008F839A8789871B861C861D861E86680144
:10167000B8EBCB1ABDEFDB0A7801E6E8EE1AEDEF26
:10168000FE0A28E1422E55245394612C712CD60178
:10169000ED91FC913097A9F1848195819C838B8396
:1016A000808191819E838D8382819381DC01ED9184
:1016B000FC910480F581E02D099598878F83D601F0
:1016C000ED91FC9182819381DC01ED91FC9106808A
:1016D000F781E02D09959A8789874B865C866D8610
:1016E0007E86D601ED91FC9160857185D801ED91E2
:1016F000FC910190F081E02DAE014F5F5F4FC8017A
:101700000995B2E0CB0ED11CEC14FD0409F0BFCF5B
:1017100098E1492E55245394612C712CF701A08136
:10172000B1811097E1F112968D919C9113979C8352
:101730008B8314968D919C9115979E838D83ED914B
:10174000FC9111970480F581E02DCD0109959887D2
:101750008F83D7018D919C91DC01ED91FC910680E6
:10176000F781E02D09959A8789874B865C866D867F
:101770007E86D801ED91FC91C080D180F7018081F7
:101780009181DC01ED91FC910280F381E02D0995BE
:10179000AE014F5F5F4FBC01C801F6010995F2E051
:1017A000EF0EF11CE214F30409F0B8CFF801EA548B
:1017B000FD4F81E08083319680829182A282B38244
:1017C000AD89BE898D929D92AD92BC9213978FEF99
:1017D0009FEFA6960FB6F894DEBF0FBECDBFDF9188
:1017E000CF911F910F91FF90EF90DF90CF90BF901E
:1017F000AF909F908F907F906F905F904F903F90B1
:101800002F900895EA30F10509F0A1C082E391E03C
:101810009A8389831B821C821D821E821F821886E6
:1018200019861A860E94CD01F801C084D184E28411
:10183000F3849B01AC012C193D094E095F09690134
:101840007A016F89788DCE0101960E94AC05C7019F
:10185000B60128EE33E040E050E00E941812690122
:101860007A019B01AC018B819C81AD81BE818C0D85
:101870009D1DAE1DBF1D8B839C83AD83BE8360E425
:1018800072E48FE090E00E94F411CF80D884E98464
:10189000FA84DC01CB018C0D9D1DAE1DBF1D8F8315
:1018A0009887A987BA870E94CD01CF80D884E98420
:1018B000FA8436E3D31A35E6E30A34ECF30A28EE69
:1018C00033E040E050E00E94181229013A019B01E8
:1018D000AC0160E472E48FE090E00E94F411A70193
:1018E0009601261B370B480B590BCA01B9012B81F6
:1018F0003C814D815E8121503109410951096901C5
:101900007A01C418D508E608F7082601370120E057
:101910003AEC4AE95BE30E941812420E531E641E21
:10192000751ED8011C964D925D926D927C921F9708
:10193000F801608B718B828B938B0E94CD01AD89F6
:10194000BE896D937D938D939C9313974ACDE6301A
:10195000F10559F46F89788D8D8D9E8D0E94EC076D
:1019600081E0EF8DF8A180833CCDEB30F10521F4CF
:10197000AB8DBC8D1C9235CDE752FF4FEE0FFF1F94
:10198000E00FF11F80819181009709F42ACDDC01DD
:10199000ED91FC910190F081E02D6F89788D099592
:1019A00020CD4F925F926F927F928F929F92AF92D3
:1019B000BF92CF92DF92EF92FF920F931F93CF933C
:1019C000DF93EC017B018A81FB0180838B81818322
:1019D0008C8182838D8183833496412C512C3201FA
:1019E00004E010E09F012F5F3F4FCF010296DF011F
:1019F0001396A8010C5F1F4F8A809B80AC80BD802E
:101A0000481459046A047B04C8F4AA85BB85A40F52
:101A1000B51F14974C9111962C91119712969C9189
:101A2000129713968C9140832183928383838FEF47
:101A3000481A580A680A780A3496D4CF4C854083ED
:101A40004D85F90140832E85FC0120838F858C9381
:101A5000F701E00FF11F412C512C3201AF019F0122
:101A60002F5F3F4FCF010296DF0113960C5F1F4F90
:101A70008C849D84AE84BF84481459046A047B041A
:101A8000D8F4CF01841B950BAC89BD89A80FB91F71
:101A90003C9111962C91119712969C911297139646
:101AA0008C9130832183928383838FEF481A580A65
:101AB000680A780A3496D3CF4E8940834F89F9015A
:101AC0004083288DFC012083898D8C93412C512CDF
:101AD00032018E899F89A88DB98D481659066A06EC
:101AE0007B0680F55201AA0CBB1CEC8DFD8DEA0D26
:101AF000FB1DA081B181FD0101900020E9F7319724
:101B00006F01CA1ADB0AA60170E060E0C701800F0E
:101B1000911F0E9400040C5F1F4F8C8D9D8DA80E9D
:101B2000B91EF50160817181A601C701800F911F67
:101B30000E9427150C0D1D1DFFEF4F1A5F0A6F0A3B
:101B40007F0AC7CFC801DF91CF911F910F91FF90FE
:101B5000EF90DF90CF90BF90AF909F908F907F904D
:101B60006F905F904F900895EF92FF920F931F93A5
:101B7000CF93DF938C017B01DC0112962C9112979D
:101B8000FB012193CF011396ED91FC91EF01099098
:101B90000020E9F72197CE1BDF0BAE0170E060E07B
:101BA0000E940004D80113966D917C91AE01C7018B
:101BB00005960E942715CE010596DF91CF911F91C2
:101BC0000F91FF90EF900895CF92DF92EF92FF92E6
:101BD0000F931F93CF93DF936C01EB01DC011296FF
:101BE0008C911297888313968C91139789831496FE
:101BF000ED91FC91DF010D900020E9F78D0101507E
:101C000011090E1B1F0BA80170E060E0CE010296C7
:101C10000E940004F60164817581A801CE01069638
:101C20000E942715C8010696F601A681B781FD011D
:101C300001900020E9F731977F01EA1AFB0AA7011A
:101C400070E060E08C0F9D1F0E940004065F1F4F34
:101C5000D60116966D917C91A701CE01800F911F40
:101C60000E9427150E0D1F1DF601A085B185FD01EF
:101C700001900020E9F731977F01EA1AFB0AA701DA
:101C800070E060E0CE01800F911F0E9400040C5FA5
:101C90001F4FD60118966D917C91A701CE01800F40
:101CA000911F0E942715C701800F911FF6016285C1
:101CB000438534852585C80FD91F688349833A83B6
:101CC0002B830496DF91CF911F910F91FF90EF909E
:101CD000DF90CF9008951F920F920FB60F921124AC
:101CE0002F933F938F939F93AF93BF9380919303D1
:101CF00090919403A0919503B09196033091920333
:101D000023E0230F2D3758F50196A11DB11D209317
:101D100092038093930390939403A0939503B093BD
:101D2000960380918E0390918F03A0919003B091C0
:101D300091030196A11DB11D80938E0390938F0393
:101D4000A0939003B0939103BF91AF919F918F9116
:101D50003F912F910F900FBE0F901F90189526E87E
:101D6000230F0296A11DB11DD2CF1F920F920FB665
:101D70000F9211242F933F934F935F936F937F9311
:101D80008F939F93AF93BF93EF93FF9387E993E074
:101D90000E945702FF91EF91BF91AF919F918F9158
:101DA0007F916F915F914F913F912F910F900FBE57
:101DB0000F901F9018951F920F920FB60F9211243B
:101DC0002F938F939F93EF93FF93E091A703F0914D
:101DD000A8038081E091AD03F091AE0382FD1BC0AA
:101DE00090818091B0038F5F8F732091B103821730
:101DF00041F0E091B003F0E0E956FC4F958F8093FD
:101E0000B003FF91EF919F918F912F910F900FBE93
:101E10000F901F9018958081F4CF10929A03109222
:101E2000990388EE93E0A0E0B0E080939B03909349
:101E30009C03A0939D03B0939E038AE491E090934A
:101E400098038093970385EC90E09093A40380938C
:101E5000A30384EC90E09093A6038093A50380EC09
:101E600090E09093A8038093A70381EC90E0909377
:101E7000AA038093A90382EC90E09093AC03809333
:101E8000AB0386EC90E09093AE038093AD03109289
:101E9000B0031092B1031092B2031092B30386E91B
:101EA00091E090934907809348078AE891E09093E6
:101EB0004B0780934A0710924D0710924C0790935E
:101EC0004F0780934E07109251071092500780E8F9
:101ED00091E0909367048093660487E993E0909380
:101EE00069048093680480E091EEA0E0B0E0809304
:101EF0006A0490936B04A0936C04B0936D041092E9
:101F00001C0784E791E090932B0780932A07109297
:101F10004007109241071092420710924307109217
:101F2000470710924607EEEAF6E01192119286E01A
:101F3000E03EF807D1F7E0EEF6E01192119287E06B
:101F4000E231F807D1F7EEE7F4E086E995E0119287
:101F50008E179F07E1F7E6E9F5E0119286E0EE3A89
:101F6000F807D9F710922C0710922D0710922E0720
:101F700010922F07109235071092340710923607EF
:101F800010923707109238071092390710923F07C6
:101F900010923E0710927A0410927B0410927C04F7
:101FA00010927D0482EA91E090933F0480933E0476
:101FB00088E691E090934504809344048CE591E099
:101FC0009093470480934604109248041092490469
:101FD00010924A0410924B0410924C0410924D043B
:101FE00010924E0410924F0410925004109251041B
:101FF0001092520410925304909355048093540409
:1020000010925604109257041092580410925904DA
:1020100010925A0410925B0410925C0410925D04BA
:1020200010925E0410925F0410926004109261049A
:1020300087E890E0909363048093620481E090E0ED
:10204000909365048093640482E793E09093430443
:10205000809342048BE793E090933504809334049B
:1020600088E497E0909337048093360410923D04FF
:1020700010923C040895789484B5826084BD84B540
:10208000816084BD85B5826085BD85B5816085BD73
:1020900080916E00816080936E001092810080912B
:1020A00081008260809381008091810081608093B3
:1020B0008100809180008160809380008091B100D8
:1020C00084608093B1008091B00081608093B00003
:1020D00080917A00846080937A0080917A00826097
:1020E00080937A0080917A00816080937A00809159
:1020F0007A00806880937A001092C10061E089E0E4
:102100000E943F0161E08AE00E943F0161E08BE0B4
:102110000E943F0161E087E00E943F0161E088E0AA
:102120000E943F0161E086E00E943F0160E083E0A1
:102130000E943F0160E085E00E943F0160E082E094
:102140000E943F0160E082E00E943F01C09168046C
:10215000D0916904C0906A04D0906B04E0906C0444
:10216000F0906D0460E079E08DE390E0A7019601C6
:102170000E9418122150310941095109569547957D
:1021800037952795E889F98982E08083C11481EE2B
:10219000D806E104F10421F02115A0E13A0798F0F6
:1021A000E889F989108260E874E88EE190E0A7017F
:1021B00096010E9418122150310941095109569582
:1021C000479537952795EC85FD853083EE85FF850E
:1021D0002083188EEC89FD8986E08083EA89FB895B
:1021E000808180618083EA89FB8980818860808327
:1021F000EA89FB89808180688083EA89FB89808104
:102200008F7D80831092130710921207109215078A
:1022100010921407109219071092180710921707BE
:102220001092160780E091EEA0E0B0E080936A047F
:1022300090936B04A0936C04B0936D04E0EEF6E011
:1022400090E080E021913191232B09F09BC0FC01AB
:10225000EE0FFF1FE052F94F2EE334E0318320836D
:102260008C599F4F9093410480934004EEEAF6E02E
:1022700090E080E021913191232B09F089C0FC018D
:10228000EE0FFF1FE255F94F24E334E03183208342
:1022900083589F4F909339048093380486E694E0E6
:1022A00090933B0480933A040E94CD01609386038F
:1022B00070938703809388039093890300E010E074
:1022C000C0918C03D0918D03E0908A03F0908B0332
:1022D000F7FC7BC061E089E0D7FD60C00E94F3009D
:1022E00060E08AE00E94F300B7018BE00E94700179
:1022F00061E087E00E94F30060E088E00E94F30064
:10230000BE0186E00E9470010E94CD01C09086034C
:10231000D0908703E0908803F09089036C197D09C1
:102320008E099F09693E734081059105D8F080911F
:102330003A0490913B046091380470913904DC01B7
:10234000ED91FC910190F081E02D48E457E0099572
:102350000E94CD0160938603709387038093880366
:102360009093890386E694E00E946F090115110598
:1023700009F4A6CF0E944302882309F4A1CF0E944A
:1023800000009ECF01968931910509F05BCF6ECF99
:1023900001968931910509F06DCF86CF0E94F30037
:1023A00060E08AE00E94F300B7018BE00E947001B8
:1023B00060E087E00E94F30061E088E00E94F300A3
:1023C000662777276C1B7D0B9CCFF194E194F10875
:1023D00060E089E0D7FD04C00E94F30061E081CF96
:1023E0000E94F30061E0DDCFDB018F939F930E9499
:1023F0003A12BF91AF91A29F800D911DA39F900DA6
:10240000B29F900D1124089597FB072E16F40094A7
:1024100007D077FD09D00E94451207FC05D03EF495
:10242000909581959F4F0895709561957F4F089580
:10243000A1E21A2EAA1BBB1BFD010DC0AA1FBB1FC8
:10244000EE1FFF1FA217B307E407F50720F0A21B3A
:10245000B30BE40BF50B661F771F881F991F1A94A7
:1024600069F760957095809590959B01AC01BD01D1
:10247000CF0108950E945F12A59F900DB49F900D0B
:10248000A49F800D911D11240895AA1BBB1B51E12F
:1024900007C0AA1FBB1FA617B70710F0A61BB70BD4
:1024A000881F991F5A95A9F780959095BC01CD0179
:1024B0000895EE0FFF1F0590F491E02D0994A29F5F
:1024C000B001B39FC001A39F700D811D1124911D08
:1024D000B29F700D811D1124911D08955058BB2786
:1024E000AA270E9486120C94C3130E94B51338F0D9
:1024F0000E94BC1320F039F49F3F19F426F40C9489
:10250000B2130EF4E095E7FB0C94AC13E92F0E9494
:10251000D41358F3BA17620773078407950720F09E
:1025200079F4A6F50C94F6130EF4E0950B2EBA2F61
:10253000A02D0B01B90190010C01CA01A0011124C9
:10254000FF27591B99F0593F50F4503E68F11A1675
:10255000F040A22F232F342F4427585FF3CF469506
:1025600037952795A795F0405395C9F77EF41F1628
:10257000BA0B620B730B840BBAF09150A1F0FF0FF2
:10258000BB1F661F771F881FC2F70EC0BA0F621FDE
:10259000731F841F48F4879577956795B795F795CE
:1025A0009E3F08F0B0CF9395880F08F09927EE0F63
:1025B0009795879508950E94881308F481E00895FF
:1025C0000E94F4120C94C3130E94BC1358F00E9492
:1025D000B51340F029F45F3F29F00C94AC1351116E
:1025E0000C94F7130C94B2130E94D41368F399233C
:1025F000B1F3552391F3951B550BBB27AA276217FF
:102600007307840738F09F5F5F4F220F331F441F0B
:10261000AA1FA9F335D00E2E3AF0E0E832D091503F
:102620005040E695001CCAF72BD0FE2F29D0660F2C
:10263000771F881FBB1F261737074807AB07B0E86F
:1026400009F0BB0B802DBF01FF2793585F4F3AF075
:102650009E3F510578F00C94AC130C94F7135F3F38
:10266000E4F3983ED4F3869577956795B795F795FB
:102670009F5FC9F7880F911D9695879597F90895E3
:10268000E1E0660F771F881FBB1F6217730784077F
:10269000BA0720F0621B730B840BBA0BEE1F88F78E
:1026A000E09508950E9459136894B1110C94F713A2
:1026B00008950E94DC1388F09F5798F0B92F99274E
:1026C000B751B0F0E1F0660F771F881F991F1AF01D
:1026D000BA95C9F714C0B13091F00E94F613B1E079
:1026E00008950C94F613672F782F8827B85F39F078
:1026F000B93FCCF3869577956795B395D9F73EF4B6
:1027000090958095709561957F4F8F4F9F4F08955D
:10271000990F0008550FAA0BE0E8FEEF16161706F2
:10272000E807F907C0F012161306E407F50798F05A
:10273000621B730B840B950B39F40A2661F0232B73
:10274000242B252B21F408950A2609F4A140A695EF
:102750008FEF811D811D089597F99F6780E870E0D4
:1027600060E008959FEF80EC089500240A94161607
:10277000170618060906089500240A94121613066F
:10278000140605060895092E0394000C11F48823FD
:1027900052F0BB0F40F4BF2B11F460FF04C06F5F19
:1027A0007F4F8F4F9F4F089557FD9058440F551FEF
:1027B00059F05F3F71F04795880F97FB991F61F0C3
:1027C0009F3F79F087950895121613061406551F3A
:1027D000F2CF4695F1DF08C0161617061806991FA6
:1027E000F1CF86957105610508940895E894BB279B
:1027F00066277727CB0197F908950E9410140C944F
:10280000C3130E94B51338F00E94BC1320F0952327
:1028100011F00C94AC130C94B21311240C94F71314
:102820000E94D41370F3959FC1F3950F50E0551F8C
:10283000629FF001729FBB27F00DB11D639FAA2715
:10284000F00DB11DAA1F649F6627B00DA11D661F64
:10285000829F2227B00DA11D621F739FB00DA11D85
:10286000621F839FA00D611D221F749F3327A00D3F
:10287000611D231F849F600D211D822F762F6A2FDB
:1028800011249F5750409AF0F1F088234AF0EE0F40
:10289000FF1FBB1F661F771F881F91505040A9F76D
:1028A0009E3F510580F00C94AC130C94F7135F3FDE
:1028B000E4F3983ED4F3869577956795B795F795A9
:1028C000E7959F5FC1F7FE2B880F911D9695879521
:1028D00097F90895B0E0A0E0E0E7F4E10C94571612
:1028E0008C01009751F4CB010E9430158C01C80176
:1028F000CDB7DEB7E0E10C947316FC01E60FF71FCD
:102900009C0122503109E217F30708F49DC0D90158
:10291000CD91DC911197C617D70798F0C530D10536
:1029200030F3CE0104978617970708F3C61BD70B21
:102930002297C193D1936D937C93CF010E94CC15C4
:10294000D6CF5B01AC1ABD0A4C018C0E9D1EA09126
:102950005407B0915507512C412CF12CE12C1097C4
:1029600031F580915207909153078815990509F028
:102970005CC04616570608F058C08091000190913F
:102980000101009741F48DB79EB740910401509129
:102990000501841B950BE817F90708F055C0F09363
:1029A0005307E0935207F90171836083A0CF8D91A3
:1029B0009C91119712966C90129713967C90139796
:1029C000A815B90559F56C0142E0C40ED11CCA1412
:1029D000DB0420F1AC014A195B09DA011296159764
:1029E00080F06282738251834083D9016D937C931E
:1029F000E114F10471F0D7011396FC93EE93129752
:102A000076CF22968C0F9D1FF90191838083F3016D
:102A1000EFCFF0935507E093540769CF4816590656
:102A200008F42C017D01D3019ACFCB010E9430150F
:102A30007C01009749F0AE01B8010E942715C8013A
:102A40000E94CC15870153CF10E000E050CFFB016E
:102A5000DC0102C001900D9241505040D8F708951A
:102A60000F931F93CF93DF938230910510F482E090
:102A700090E0E0915407F091550730E020E0B0E09D
:102A8000A0E0309799F42115310509F44AC0281BBC
:102A9000390B24303105D8F58A819B816115710588
:102AA00089F1FB0193838283FE0111C04081518132
:102AB0000281138148175907E0F04817590799F424
:102AC000109761F012960C93129713961C933296FE
:102AD000CF01DF91CF911F910F910895009354077B
:102AE00010935507F4CF2115310551F042175307C4
:102AF00038F0A901DB019A01BD01DF01F801C1CF66
:102B0000EF01F9CF9093550780935407CDCFFE0185
:102B1000E20FF31F81939193225031093983288367
:102B2000D7CF2091520730915307232B41F42091A6
:102B300002013091030130935307209352072091F3
:102B40000001309101012115310541F42DB73EB747
:102B50004091040150910501241B350BE09152076F
:102B6000F0915307E217F307A0F42E1B3F0B281731
:102B7000390778F0AC014E5F5F4F2417350748F0F6
:102B80004E0F5F1F509353074093520781939193C9
:102B90009FCFF0E0E0E09CCFCF93DF930097E9F088
:102BA000FC01329713821282A0915407B09155070D
:102BB000ED0130E020E01097A1F420813181820FF7
:102BC000931F20915207309153072817390709F0B6
:102BD00061C0F0935307E0935207DF91CF910895BE
:102BE000EA01CE17DF07E8F54A815B819E014115B6
:102BF0005105B1F7E901FB83EA8349915991C40F6B
:102C0000D51FEC17FD0761F4808191810296840F36
:102C1000951FE90199838883828193819B838A83AD
:102C2000F0E0E0E012968D919C9113970097B9F532
:102C30002D913C911197CD010296820F931F209107
:102C40005207309153072817390739F6309751F555
:102C50001092550710925407B0935307A093520750
:102C6000BCCFD383C28340815181840F951FC81785
:102C7000D90761F44E5F5F4F88819981480F591FD2
:102C8000518340838A819B819383828321153105FF
:102C900009F0B0CFF0935507E09354079ECFFD01A4
:102CA000DC01C0CF13821282D7CF2F923F924F9276
:102CB0005F926F927F928F929F92AF92BF92CF92CC
:102CC000DF92EF92FF920F931F93CF93DF93CDB7D5
:102CD000DEB7CA1BDB0B0FB6F894DEBF0FBECDBF4D
:102CE00009942A88398848885F846E847D848C841E
:102CF0009B84AA84B984C884DF80EE80FD800C8127
:102D00001B81AA81B981CE0FD11D0FB6F894DEBF09
:0C2D10000FBECDBFED010895F894FFCF79
:102D1C00000056078000726F7373657269616C5F97
:102D2C006D7367732F526571756573745061726141
:102D3C006D0000000000E40DB504B204AF04000007
:102D4C000000F205AC05A905A60500000000B40DB5
:102D5C00590456045304000000007902D9010602FC
:102D6C00C60237021502290200000000A007CB069C
:102D7C000904060400000000D007F506EE02EB0281
:102D8C0000000000D10CEC0750044D0400000000C2
:102D9C00F5026F09E6020000000044043B0438040D
:102DAC00350400000000210412040F040C04000080
:102DBC0000001107F102EE02EB023966313935667B
:102DCC0038383132343666646661323739386431BA
:102DDC00643365656263613834610067656F6D6586
:102DEC007472795F6D7367732F5477697374004DC8
:102DFC006573736167652066726F6D2064657669B3
:102E0C0063652064726F707065643A206D657373CE
:102E1C00616765206C6172676572207468616E20F1
:102E2C006275666665722E003461383432623635EE
:102E3C006634313330383464633262313066623434
:102E4C0038346561376631370067656F6D6574724C
:102E5C00795F6D7367732F566563746F72330030CF
:102E6C003764663935663338333030343764306123
:102E7C0036316238326130373437346532303900AC
:102E8C006D6573736167655F706B672F56656C5FFB
:102E9C006D736700383532343538366533346662D5
:102EAC00643763623163303863356635663163612C
:102EBC0030653537007374645F6D7367732F496EBB
:102ECC0074313600396630653938626461363539AB
:102EDC00383139383664646635336166613761344C
:102EEC0030653439003131616264373331633235E6
:102EFC0039333332363163643631383362643132CC
:102F0C00643632393500726F7373657269616C5F48
:102F1C006D7367732F4C6F670030616435316638A1
:102F2C003866633434383932663863313036383485
:102F3C0030373736343630303500726F7373657214
:102F4C0069616C5F6D7367732F546F706963496E41
:102F5C00666F006364373136366337346335353228
:102F6C006333313166626363326665356137626340
:102F7C00323839007374645F6D7367732F54696DE5
:102F8C0065002F636D645F76656C002F70776D5FE5
:062F9C00696E666F000083
:00000001FF
